:100000000C9462000C948A000C948A000C948A0070
:100010000C948A000C948A000C948A000C948A0038
:100020000C948A000C948A000C948A000C948A0028
:100030000C948A000C948A000C948A000C948A0018
:100040000C9470040C948A000C94E0040C94BA0490
:100050000C948A000C948A000C948A000C948A00F8
:100060000C948A000C948A000000000024002700F1
:100070002A0000000000250028002B0000000000DE
:1000800023002600290004040404040404040202DA
:100090000202020203030303030301020408102007
:1000A0004080010204081020010204081020000012
:1000B0000008000201000003040700000000000027
:1000C0000000120511241FBECFEFD8E0DEBFCDBF68
:1000D00011E0A0E0B1E0EAE3FAE102C005900D9280
:1000E000A038B107D9F723E0A0E8B1E001C01D9224
:1000F000AD34B207E1F710E0C2E6D0E004C02197CA
:10010000FE010E942D08C136D107C9F70E9454058F
:100110000C941B0D0C940000833081F028F4813086
:1001200099F08230A9F008958730A9F08830C9F09D
:100130008430B1F4809180008F7D03C08091800075
:100140008F7780938000089584B58F7784BD08955C
:1001500084B58F7DFBCF8091B0008F778093B00006
:1001600008958091B0008F7DF9CFCF93DF93282F32
:1001700030E0F901E255FF4F8491F901E656FF4F57
:10018000D491F901EA57FF4FC491CC23A1F081111A
:100190000E948C00EC2FF0E0EE0FFF1FE458FF4FA1
:1001A000A591B491EC91ED2381E090E009F480E019
:1001B000DF91CF91089580E090E0FACF1F93CF9325
:1001C000DF93282F30E0F901E255FF4F8491F901C8
:1001D000E656FF4FD491F901EA57FF4FC491CC2363
:1001E000A9F0162F81110E948C00EC2FF0E0EE0F89
:1001F000FF1FEE58FF4FA591B4918FB7F894EC9183
:10020000111108C0D095DE23DC938FBFDF91CF9111
:100210001F910895DE2BF8CFCF93DF9390E0FC0180
:10022000E656FF4F24918A579F4FFC018491882303
:10023000D1F090E0880F991FFC01E859FF4FA5917C
:10024000B491FC01EE58FF4FC591D49161110EC0DD
:100250009FB7F8948C91E22FE0958E238C932881A0
:10026000E223E8839FBFDF91CF9108958FB7F89481
:10027000EC91E22BEC938FBFF6CFCF93C82F60E0C9
:100280000E940C0161E08C2FCF910C94DE00CF9383
:10029000C82F60E00E94DE0061E08C2FCF910C94AB
:1002A0000C014F925F926F927F928F929F92AF92CA
:1002B000BF92CF92DF92EF92FF920F931F93CF9353
:1002C000DF933C018FB7F8948090A8029090A90228
:1002D000A090AA02B090AB028FBF80914B030E9406
:1002E000B5007C01892BB9F02FB7F8948091A80252
:1002F0009091A902A091AA02B091AB022FBF8819D8
:100300009909AA09BB094F97A105B10530F3EE245D
:10031000EA94FE2C98C0809149030E94B500019791
:1003200019F7CBE4D0E0CE010197F1F780914903B2
:1003300090914A030E9447018BE990E00197F1F701
:100340008091490390914A030E943D012197F1F762
:1003500038E0C32ED12C55245394912C812CAA24FF
:10036000A394B12C44244394CBE4D0E00BE910E0F7
:1003700080914B030E94B500019719F48A289B28AD
:100380005424AA0CBB1CCE010197F1F780914903BC
:1003900090914A030E944701C8010197F1F78091AB
:1003A000490390914A030E943D01CE010197F1F764
:1003B00081E0C81AD108E1F680914B030E94B50094
:1003C0006C01CE010197F1F78091490390914A03A6
:1003D0000E944701C8010197F1F78091490390916C
:1003E0004A030E943D01CE010197F1F7CE0101972A
:1003F000F1F780914B0390914C030E94470180914B
:10040000490390914A030E944701C8010197F1F7FF
:100410008091490390914A030E943D012197F1F791
:1004200080914B0390914C030E943D01F301808227
:1004300081E0CA94CD2809F080E0851521F09EEF77
:10044000E92EFF24FA94C701DF91CF911F910F91FC
:10045000FF90EF90DF90CF90BF90AF909F908F90E4
:100460007F906F905F904F900895AF92BF92CF9220
:10047000DF92EF92FF920F931F93CF93DF93182F8A
:100480008BE99FE00197F1F7809149030E94B50045
:10049000892B09F4AAC080914B030E94B500892BD7
:1004A00009F4A6C080914B0390914C030E94470130
:1004B000CBE4D0E0CE010197F1F780914903909110
:1004C0004A030E9447018BE990E00197F1F7809180
:1004D000490390914A030E943D012197F1F7D8E02A
:1004E000C1E02BE4C22ED12C3BE9A32EB12CE12E8E
:1004F000F12C80914B0390914C03012F017010FF60
:100500006EC00E943D01C6010197F1F78091490339
:1005100090914A030E944701C5010197F1F780912C
:10052000490390914A030E943D01C6010197F1F7EA
:10053000802F8C27F594E7941E2DD15009F04DC0E3
:1005400080914B0390914C030C1709F44BC00E940F
:100550003D01CBE4D0E0CE010197F1F78091490352
:1005600090914A030E9447010BE910E0C8010197EE
:10057000F1F78091490390914A030E943D01CE0119
:100580000197F1F780914B0390914C030E943D013C
:10059000CE010197F1F78091490390914A030E949F
:1005A0004701C8010197F1F78091490390914A03EF
:1005B0000E943D012197F1F78BE99FE00197F1F748
:1005C00090E080E0DF91CF911F910F91FF90EF902D
:1005D000DF90CF90BF90AF900895C82F88CF0E9432
:1005E000470191CF0E944701B4CF8FEF9FEFEACF31
:1005F0008EEF9FEFE7CF8AEF0E943502892BD9F764
:100600000895CF93C82F0E94350280EF0E943502D3
:100610008C2F0E94350290E080E0CF9108958E509B
:10062000806480937C0080917A00806480937A005B
:1006300080917A0086FDFCCF8091780090917900BE
:1006400008953FB7F8948091A4029091A502A091DB
:10065000A602B091A70226B5A89B05C02F3F19F0AE
:100660000196A11DB11D3FBFBA2FA92F982F882732
:10067000BC01CD01620F711D811D911D42E0660F0D
:10068000771F881F991F4A95D1F70895AF92BF929F
:10069000CF92DF92EF92FF920F931F93CF93DF934E
:1006A0006C017B018B01040F151FEB015E01AE187D
:1006B000BF08C017D10759F06991D601ED91FC919F
:1006C0000190F081E02DC6010995892B79F7C501CC
:1006D000DF91CF911F910F91FF90EF90DF90CF901E
:1006E000BF90AF900895FC01538D448D252F30E0CD
:1006F000842F90E0821B930B541710F0CF9608952F
:1007000001970895FC01918D828D981761F0A28D5B
:10071000AE0FBF2FB11D5D968C91928D9F5F9F7321
:10072000928F90E008958FEF9FEF0895FC01918DD7
:10073000828D981731F0828DE80FF11D858D90E044
:1007400008958FEF9FEF0895FC01918D228D892FE1
:1007500090E0805C9F4F821B91098F7399270895C9
:100760008CEA92E00E94A40321E0892B09F420E0A6
:10077000822F089580E090E0892B29F00E94B00339
:1007800081110C9400000895FC01A48DA80FB92FCD
:10079000B11DA35ABF4F2C91848D90E001968F73A9
:1007A0009927848FA689B7892C93A089B1898C91C8
:1007B000837080648C93938D848D981306C0028817
:1007C000F389E02D80818F7D80830895EF92FF92E1
:1007D0000F931F93CF93DF93EC0181E0888F9B8D64
:1007E0008C8D98131AC0E889F989808185FF15C01E
:1007F0009FB7F894EE89FF896083E889F989808141
:100800008370806480839FBF81E090E0DF91CF910F
:100810001F910F91FF90EF900895F62E0B8D10E031
:100820000F5F1F4F0F731127E02E8C8D8E110CC0A0
:100830000FB607FCFACFE889F989808185FFF5CFEB
:10084000CE010E94C403F1CFEB8DEC0FFD2FF11D03
:10085000E35AFF4FF0829FB7F8940B8FEA89FB8928
:1008600080818062CFCFCF93DF93EC01888D882386
:10087000B9F0AA89BB89E889F9898C9185FD03C003
:10088000808186FD0DC00FB607FCF7CF8C9185FFE8
:10089000F2CF808185FFEDCFCE010E94C403E9CF66
:1008A000DF91CF910895CF93DF93FC010190002059
:1008B000E9F73197AF01481B590BBC018CEA92E074
:1008C0000E944603EC0142E050E062E171E08CEAF4
:1008D00092E00E9446038C0F9D1FDF91CF910895F7
:1008E0001F920F920FB60F9211242F933F938F9365
:1008F0009F93AF93BF938091A8029091A902A0917A
:10090000AA02B091AB023091A30223E0230F2D374E
:1009100058F50196A11DB11D2093A3028093A80252
:100920009093A902A093AA02B093AB028091A40273
:100930009091A502A091A602B091A7020196A11DD7
:10094000B11D8093A4029093A502A093A602B09338
:10095000A702BF91AF919F918F913F912F910F90DF
:100960000FBE0F901F90189526E8230F0296A11D29
:10097000B11DD2CF1F920F920FB60F9211242F9359
:100980003F934F935F936F937F938F939F93AF9317
:10099000BF93EF93FF938CEA92E00E94C403FF9110
:1009A000EF91BF91AF919F918F917F916F915F91E7
:1009B0004F913F912F910F900FBE0F901F90189560
:1009C0001F920F920FB60F9211242F938F939F9324
:1009D000EF93FF93E091BC02F091BD028081E09122
:1009E000C202F091C30282FD1BC090818091C502BA
:1009F0008F5F8F732091C602821741F0E091C5028C
:100A0000F0E0E455FD4F958F8093C502FF91EF9183
:100A10009F918F912F910F900FBE0F901F9018955F
:100A20008081F4CFCF93DF93ECEAF2E0138212825D
:100A300088EE93E0A0E0B0E084839583A683B7833B
:100A400084E091E09183808385EC90E095878487B2
:100A500084EC90E09787868780EC90E0918B808B88
:100A600081EC90E0938B828B82EC90E0958B848B71
:100A700086EC90E0978B868B118E128E138E148EDF
:100A8000C9E4D3E082E090E09983888383E090E03A
:100A90009B838A8382E090E00E943D018A819B8152
:100AA000DF91CF910C943D01CF93DF9300D0CDB770
:100AB000DEB7789484B5826084BD84B5816084BDDE
:100AC00085B5826085BD85B5816085BD80916E00EC
:100AD000816080936E00109281008091810082601D
:100AE000809381008091810081608093810080915A
:100AF00080008160809380008091B1008460809349
:100B0000B1008091B00081608093B00080917A0044
:100B1000846080937A0080917A00826080937A006A
:100B200080917A00816080937A0080917A00806859
:100B300080937A001092C10060E080E10E940C0175
:100B400060E08EE00E940C0160E08FE00E940C01EA
:100B500061E08DE00E940C01E091BC02F091BD02C9
:100B600082E08083E091B802F091B9021082E091B6
:100B7000BA02F091BB028FEC80831092C402E09124
:100B8000C002F091C10286E08083E091BE02F09144
:100B9000BF02808180618083E091BE02F091BF023C
:100BA000808188608083E091BE02F091BF028081E5
:100BB00080688083E091BE02F091BF0280818F7DCA
:100BC000808385E191E00E9453048CEA92E00E94C8
:100BD00033048AEA0E943502892BD9F70E94210347
:100BE0004B015C018AE0C82ED12CE12CF12C0E9433
:100BF0002103681979098A099B09683E73408105B8
:100C00009105A8F301E0C01AD108E108F10818EE37
:100C1000810E13E0911EA11CB11CC114D104E1048A
:100C2000F10429F789E291E00E9453042FB7F89468
:100C30008091A8029091A902A091AA02B091AB0262
:100C40002FBF40919F025091A0026091A10270912C
:100C5000A2028C019D01041B150B260B370BB90159
:100C6000A801413251056105710508F4BBC18093AB
:100C70009F029093A002A093A102B093A20280E1F0
:100C80000E940F038C0190939E0280939D028EE040
:100C90000E940F037C0190939C0280939B028FE043
:100CA0000E940F036C0190939A02809399028091A5
:100CB0009702909198024C01092E000CAA08BB08DB
:100CC0002801012E000C66087708801791070CF0A8
:100CD00051C1C501B4010E944A094B015C01C30125
:100CE000B2010E944A099B01AC01C501B4010E94F6
:100CF000A00820E030E040E85FE30E943308609302
:100D0000930270939402809395029093960220E050
:100D100030E048EC52E4609193027091940280912B
:100D20009502909196020E94D6090E941209B62E51
:100D3000A72E609391027093920280908F02909000
:100D40009002B7010F2C000C880B990B0E944A09E6
:100D50002B013C01B401092C000C880B990B0E945B
:100D60004A098E149F040CF01CC1A30192010E9439
:100D7000A00820E030E040E85FE30E943308609381
:100D80008B0270938C0280938D0290938E0220E0F0
:100D900030E048EC52E460918B0270918C028091BB
:100DA0008D0290918E020E94D6090E941209762E21
:100DB000672E6093890270938A02809087029090D8
:100DC0008802B6010D2C000C880B990B0E944A0971
:100DD0001B012C01B401092C000C880B990B0E94FB
:100DE0004A098C149D040CF0E9C0A20191010E94F3
:100DF000A00820E030E040E85FE30E943308609301
:100E0000830270938402809385029093860220E08F
:100E100030E048EC52E4609183027091840280914A
:100E20008502909186020E94D6090E941209609361
:100E30008102709382028B2D9A2D97FF03C09195AA
:100E40008195910903978CF4872D962D97FF03C008
:100E5000919581959109039744F4CB0177FF03C0E5
:100E60009195819591090397F4F07F936F93DF92A9
:100E7000CF926F927F92FF92EF92AF92BF921F93A9
:100E80000F932FE331E03F932F9301E811E01F937D
:100E90000F930E94430AC8010E9453040FB6F894AE
:100EA000DEBF0FBECDBF8091910290919202C39799
:100EB00064F084E10E9435028DE20E94010380EF1C
:100EC0000E94350284E10E9435028091890290914E
:100ED0008A020B971CF08CE00E9401038091810232
:100EE0009091820284971CF084E00E94010380911B
:100EF0009D0290919E029093980280939702809118
:100F00009B0290919C029093900280938F0280911B
:100F1000990290919A02909388028093870280911F
:100F20004B030E94B500892B09F055C0CE010296F3
:100F30000E945101892B09F055C0EA81ED5EE33131
:100F400008F050C0F0E0E955F84F0C942D081D084A
:100F50001B08F2070708F207120807080F080F0816
:100F60000F08F207F207F207F207F207F207F2079B
:100F70000F08FF07C301B2010E944A092B013C017F
:100F8000C501B4010E944A099B01AC01C301B20131
:100F90000E94A0089B01AC0160E070E080E89FE344
:100FA000ACCE9B01AC01C301B2010E94A0089B0121
:100FB000AC0160E070E080E89FE3DFCE9B01AC0114
:100FC000C201B1010E94A0089B01AC0160E070E089
:100FD00080E89FE312CF809149030E94B500892BDE
:100FE00009F4A4CF00E010E0012B09F41FCE0E9409
:100FF000B003882309F41ACE0E94000017CE0E9485
:10100000FB028AEA0E943502892BD9F7EBCF0E94B6
:10101000FB02CE0101960E945101892B19F70E9413
:10102000FB02E0CF0E94FB028BEA0E94350283E8BC
:101030000E943502D7CF8EEEFBCF0E94FB0280E8E4
:1010400091E00E945101892B11F40E94FB026091F2
:1010500080018DE00E94DE00C5CFEE0FFF1F0590DE
:10106000F491E02D09945058BB27AA270E944B0801
:101070000C949C090E948E0938F00E94950920F07A
:1010800039F49F3F19F426F40C948B090EF4E09583
:10109000E7FB0C948509E92F0E94AD0958F3BA17B4
:1010A000620773078407950720F079F4A6F50C947E
:1010B000CF090EF4E0950B2EBA2FA02D0B01B9012C
:1010C00090010C01CA01A0011124FF27591B99F0BE
:1010D000593F50F4503E68F11A16F040A22F232FCA
:1010E000342F4427585FF3CF469537952795A7951A
:1010F000F0405395C9F77EF41F16BA0B620B730BC1
:10110000840BBAF09150A1F0FF0FBB1F661F771F31
:10111000881FC2F70EC0BA0F621F731F841F48F4E6
:10112000879577956795B795F7959E3F08F0B0CF6F
:101130009395880F08F09927EE0F97958795089556
:101140000E94B4080C949C090E94950958F00E94D2
:101150008E0940F029F45F3F29F00C948509511164
:101160000C94D0090C948B090E94AD0968F3992363
:10117000B1F3552391F3951B550BBB27AA27621793
:101180007307840738F09F5F5F4F220F331F441FA0
:10119000AA1FA9F335D00E2E3AF0E0E832D09150D4
:1011A0005040E695001CCAF72BD0FE2F29D0660FC1
:1011B000771F881FBB1F261737074807AB07B0E804
:1011C00009F0BB0B802DBF01FF2793585F4F3AF00A
:1011D0009E3F510578F00C9485090C94D0095F3F2F
:1011E000E4F3983ED4F3869577956795B795F79590
:1011F0009F5FC9F7880F911D9695879597F9089578
:10120000E1E0660F771F881FBB1F62177307840713
:10121000BA0720F0621B730B840BBA0BEE1F88F722
:10122000E09508950E9419096894B1110C94D009B1
:1012300008950E94B50988F09F5798F0B92F992713
:10124000B751B0F0E1F0660F771F881F991F1AF0B1
:10125000BA95C9F714C0B13091F00E94CF09B1E03E
:1012600008950C94CF09672F782F8827B85F39F03D
:10127000B93FCCF3869577956795B395D9F73EF44A
:1012800090958095709561957F4F8F4F9F4F0895F2
:10129000E89409C097FB3EF4909580957095619510
:1012A0007F4F8F4F9F4F9923A9F0F92F96E9BB27C6
:1012B0009395F695879577956795B795F111F8CF42
:1012C000FAF4BB0F11F460FF1BC06F5F7F4F8F4FAD
:1012D0009F4F16C0882311F096E911C0772321F0A3
:1012E0009EE8872F762F05C0662371F096E8862F3B
:1012F00070E060E02AF09A95660F771F881FDAF792
:10130000880F9695879597F9089597F99F6780E8D4
:1013100070E060E008959FEF80EC089500240A9447
:101320001616170618060906089500240A941216C0
:101330001306140605060895092E0394000C11F4F3
:10134000882352F0BB0F40F4BF2B11F460FF04C0A0
:101350006F5F7F4F8F4F9F4F089557FD9058440FF9
:10136000551F59F05F3F71F04795880F97FB991F04
:1013700061F09F3F79F087950895121613061406C1
:10138000551FF2CF4695F1DF08C01616170618064E
:10139000991FF1CF86957105610508940895E89429
:1013A000BB2766277727CB0197F908950E94E909A3
:1013B0000C949C090E948E0938F00E94950920F037
:1013C000952311F00C9485090C948B0911240C942D
:1013D000D0090E94AD0970F3959FC1F3950F50E0BD
:1013E000551F629FF001729FBB27F00DB11D639FD7
:1013F000AA27F00DB11DAA1F649F6627B00DA11D7D
:10140000661F829F2227B00DA11D621F739FB00D22
:10141000A11D621F839FA00D611D221F749F332792
:10142000A00D611D231F849F600D211D822F762F2B
:101430006A2F11249F5750409AF0F1F088234AF008
:10144000EE0FFF1FBB1F661F771F881F9150504074
:10145000A9F79E3F510580F00C9485090C94D009A2
:101460005F3FE4F3983ED4F3869577956795B795FB
:10147000F795E7959F5FC1F7FE2B880F911D969515
:10148000879597F90895AEE0B0E0E9E4FAE00C94AE
:10149000F20C0D891E8986E08C831A8309838FEFF5
:1014A0009FE79E838D83AE01475E5F4F6F89788D86
:1014B000CE0101960E94660A2F813885020F131F04
:1014C000F80110822E96E4E00C940E0DABE0B0E033
:1014D000ECE6FAE00C94E40C7C013B018A01FC018F
:1014E00017821682838181FFC8C1CE0101965C01FB
:1014F000F7019381F30193FD859193FF81913F0162
:10150000882309F453C1853239F493FD859193FF03
:1015100081913F01853229F4B70190E00E94560C79
:10152000E7CF912C212C312CFFE1F31538F08B32D1
:1015300011F190F4803209F1833229F137FC3CC07B
:1015400020ED280F2A3050F536FE20C08AE0989E04
:10155000200D1124922E06C08D3291F0803371F748
:10156000689430F8F30193FD859193FF81913F01D9
:101570008111DACF21C0689431F8689432F8F2CF43
:10158000689433F8EFCF689434F8ECCFEAE02E9EFD
:10159000200D1124222E689435F8E4CF8E3229F4E0
:1015A00036FC04C1689436F8DDCF8C3619F46894A3
:1015B00037F8D8CF8836B1F2982F9F7D9554933065
:1015C000E0F08336A1F18337C1F1833509F063C0C0
:1015D0002801F2E04F0E511CF801C080D180692D26
:1015E00070E036FC02C06FEF7FEFC6010E94400C36
:1015F0004C01689437F882010AC00C5F1F4FFFE36B
:10160000F98388248394912C6501E89437F833FE9C
:101610002DC0522C8114910471F5552009F468CF26
:10162000B70180E290E00E94560C5A94F6CFF80180
:10163000808189830E5F1F4FE4CF2801F2E04F0EB7
:10164000511CF801C080D180692D70E036FC02C0C9
:101650006FEF7FEFC6010E944B0C4C018201D5CF8A
:10166000B70180E290E00E94560C2A9428141904D5
:1016700009F0B0F7CECFF60137FC859137FE8191A6
:101680006F01B70190E00E94560C51105A94F1E09E
:101690008F1A9108BFCF843619F0893609F077C0C8
:1016A000F80137FE6BC060817181828193810C5F8C
:1016B0001F4FF32DFF763F2E97FF09C09095809521
:1016C000709561957F4F8F4F9F4F689437F82AE050
:1016D00030E0A5010E94860CC82ECA188C2C432C21
:1016E00036FE0CC0E89440F8C91440F434FE05C03E
:1016F00032FC03C0F32DFE7E4F2E892C44FE95C094
:10170000FE01EC0DF11D8081803309F087C0242D8E
:10171000297E422E842D8870582E43FC95C040FEB1
:101720008FC09C2C821418F42C0C922C981844FE18
:1017300091C0B70180E390E00E94560C42FE09C0C0
:1017400088E790E041FE02C088E590E0B7010E9482
:10175000560CC91408F48AC0CA94D12C9FEFC91A38
:10176000D90ACA0CDB1CF60182916F01B70190E027
:101770000E94560CAC14BD04B1F74FCF608171814B
:10178000072E000C880B990B0E5F1F4F92CFD32CA6
:10179000E894D4F82AE030E0853739F1232D297F09
:1017A000D22E8F3601F148F48835A9F0F7018681F1
:1017B00097812B96E2E10C94000D803749F0883731
:1017C000A9F7D4FE02C06894D2F820E130E00DC041
:1017D0006894D4F8F6CF34FE03C0822F8660D82EEA
:1017E00020E132E002C028E030E0F801D7FE0FC06F
:1017F00060817181828193810C5F1F4FA5010E94DE
:10180000860CC82ECA183D2CE89437F867CF608143
:10181000718190E080E00E5F1F4FF0CF42FC02C06C
:10182000839478CF8394839475CF842D867809F43C
:1018300071CFF6CFB70180E290E00E94560C8394FE
:101840008214C0F3512C73CF522C5818821408F410
:101850006ECFF8CF842D867809F47BCF8BE241FEE2
:1018600080E247FC8DE2B70190E071CFB70180E3E1
:1018700090E00E94560C9A946CCF8FEF9FEF99CF17
:10188000FC010590615070400110D8F7809590954B
:101890008E0F9F1F0895FC01615070400190011050
:1018A000D8F7809590958E0F9F1F08950F931F93E3
:1018B000CF93DF93182F092FEB018B8181FD09C096
:1018C0001FEF0FEF812F902FDF91CF911F910F917D
:1018D000089582FF14C02E813F818C819D8128173D
:1018E00039073CF4E881F981CF0101969983888317
:1018F00010838E819F8101969F838E83E3CFE8853D
:10190000F985812F0995892BA1F3DACFFA01AA274E
:10191000283051F1203181F1E8946F936E7F6E5F32
:101920007F4F8F4F9F4FAF4FB1E03ED0B4E03CD0E0
:10193000670F781F891F9A1FA11D680F791F8A1FC3
:10194000911DA11D6A0F711D811D911DA11D20D02A
:1019500009F468943F912AE0269F11243019305DE4
:101960003193DEF6CF010895462F4770405D4193D5
:10197000B3E00FD0C9F7F6CF462F4F70405D4A3322
:1019800018F0495D31FD4052419302D0A9F7EACFEA
:10199000B4E0A6959795879577956795BA95C9F719
:1019A00000976105710508959B01AC010A2E06940C
:1019B0005795479537952795BA95C9F7620F731FC5
:1019C000841F951FA01D08952F923F924F925F9202
:1019D0006F927F928F929F92AF92BF92CF92DF923F
:1019E000EF92FF920F931F93CF93DF93CDB7DEB7A4
:1019F000CA1BDB0B0FB6F894DEBF0FBECDBF099438
:101A00002A88398848885F846E847D848C849B848E
:101A1000AA84B984C884DF80EE80FD800C811B819C
:101A2000AA81B981CE0FD11D0FB6F894DEBF0FBECB
:0A1A3000CDBFED010895F894FFCF3B
:101A3A0000000000E603460373033304A403820391
:101A4A0096030D0A0053657269616C20696E6974A8
:101A5A0069616C697A656421004B6579626F6172AC
:101A6A006420696E697469616C697A6564210041F0
:101A7A004343454C3A202534642028252B336425DA
:101A8A002529097C09425245414B3A2025346420D4
:101A9A0028252B3364252529097C09434C555448AC
:101AAA003A202533642028252B3264252529000075
:00000001FF
